:100000000C9462000C948A000C948A000C948A0070
:100010000C948A000C948A000C948A000C948A0038
:100020000C948A000C948A000C948A000C948A0028
:100030000C948A000C948A000C948A000C948A0018
:100040000C9416070C948A000C94E4060C94BE06DB
:100050000C948A000C948A000C948A000C948A00F8
:100060000C948A000C948A000000000024002700F1
:100070002A0000000000250028002B0000000008D6
:10008000000201000003040700000000000000005F
:1000900000000000230026002900040404040404D6
:1000A0000404020202020202030303030303010227
:1000B00004081020408001020408102001020408F6
:1000C0001020600711241FBECFEFD8E0DEBFCDBFE8
:1000D00012E0A0E0B1E0ECEAFAE102C005900D9276
:1000E000A631B107D9F722E0A6E1B2E001C01D9226
:1000F000A73FB207E1F710E0C2E6D0E004C02197C5
:10010000FE010E944E0DC136D107C9F70E94CC07EF
:100110000C94540D0C940000CF92DF92EF92FF925A
:10012000CF93DF93B091D302A0E08111AB2F8091E8
:10013000D40290E0880F991FAC0140575F4FC090E8
:10014000D902D090DA02E090DB02F090DC0230E0DD
:1001500020E0FA01C591D491E881B90190E080E0F6
:10016000EB23EA130AC02F5F3F4F6C157D058E0508
:100170009F0578F36FEF7FEFCB01DF91CF91FF9079
:10018000EF90DF90CF900895AF92BF92CF92DF9221
:10019000EF92FF920F931F93CF93DF936C017B013C
:1001A0008B01040F151FEB015E01AE18BF08C017CD
:1001B000D10759F06991D601ED91FC910190F08140
:1001C000E02DC6010995892B79F7C501DF91CF9103
:1001D0001F910F91FF90EF90DF90CF90BF90AF9065
:1001E0000895FC01538D448D252F30E0842F90E03D
:1001F000821B930B541710F0CF9608950197089522
:10020000FC01918D828D981761F0A28DAE0FBF2FEA
:10021000B11D5D968C91928D9F5F9F73928F90E040
:1002200008958FEF9FEF0895FC01918D828D9817AF
:1002300031F0828DE80FF11D858D90E008958FEFEC
:100240009FEF0895FC01918D228D892F90E0805CB5
:100250009F4F821B91098F73992708958FE292E037
:100260000E94220121E0892B09F420E0822F0895C9
:1002700080E090E0892B29F00E942E0181110C94DE
:1002800000000895FC01A48DA80FB92FB11DA35A39
:10029000BF4F2C91848D90E001968F739927848FA6
:1002A000A689B7892C93A089B1898C9183708064C9
:1002B0008C93938D848D981306C00288F389E02D6A
:1002C00080818F7D80830895EF92FF920F931F931B
:1002D000CF93DF93EC0181E0888F9B8D8C8D9813F9
:1002E0001AC0E889F989808185FF15C09FB7F89405
:1002F000EE89FF896083E889F98980818370806451
:1003000080839FBF81E090E0DF91CF911F910F919B
:10031000FF90EF900895F62E0B8D10E00F5F1F4FAA
:100320000F731127E02E8C8D8E110CC00FB607FCB9
:10033000FACFE889F989808185FFF5CFCE010E9447
:100340004201F1CFEB8DEC0FFD2FF11DE35AFF4F72
:10035000F0829FB7F8940B8FEA89FB8980818062D5
:10036000CFCFCF93DF93EC01888D8823B9F0AA8992
:10037000BB89E889F9898C9185FD03C0808186FD60
:100380000DC00FB607FCF7CF8C9185FFF2CF8081AF
:1003900085FFEDCFCE010E944201E9CFDF91CF91E1
:1003A0000895833081F028F4813099F08230A9F0EB
:1003B00008958730A9F08830C9F08430B1F4809175
:1003C00080008F7D03C0809180008F7780938000B4
:1003D000089584B58F7784BD089584B58F7DFBCF54
:1003E0008091B0008F778093B00008958091B00025
:1003F0008F7DF9CFCF93DF93282F30E0F901E458B8
:10040000FF4F8491F901E255FF4FD491F901E6566F
:10041000FF4FC491CC23A1F081110E94D101EC2F98
:10042000F0E0EE0FFF1FE057FF4FA591B491EC9164
:10043000ED2381E090E009F480E0DF91CF91089511
:1004400080E090E0FACF1F93CF93DF93282F30E026
:10045000F901E458FF4F8491F901E255FF4FD4911F
:10046000F901E656FF4FC491CC23A9F0162F811154
:100470000E94D101EC2FF0E0EE0FFF1FEE58FF4F6E
:10048000A591B4918FB7F894EC91111108C0D09553
:10049000DE23DC938FBFDF91CF911F910895DE2B78
:1004A000F8CFCF93DF9390E0FC01E255FF4F24910A
:1004B00086569F4FFC0184918823C9F090E0880FF5
:1004C000991FFC01E859FF4FA591B491FC01EE582A
:1004D000FF4FC591D49161110DC09FB7F8948C91D5
:1004E000209582238C938881282328839FBFDF91C6
:1004F000CF910895623051F49FB7F8943C91822FC8
:10050000809583238C93E8812E2BEFCF8FB7F894BF
:10051000EC912E2B2C938FBFEACF3FB7F8948091AC
:10052000170290911802A0911902B0911A0226B5F3
:10053000A89B05C02F3F19F00196A11DB11D3FBF1B
:10054000BA2FA92F982F8827BC01CD01620F711DEA
:10055000811D911D42E0660F771F881F991F4A95E4
:10056000D1F708958F929F92AF92BF92CF92DF9270
:10057000EF92FF924B015C010E948D026B017C01A6
:100580000E948D026C197D098E099F09683E734097
:1005900081059105A8F321E0821A9108A108B1080C
:1005A00088EEC80E83E0D81EE11CF11C8114910472
:1005B000A104B10429F7FF90EF90DF90CF90BF9096
:1005C000AF909F908F900895CF92DF92EF92FF921D
:1005D0000F931F93CF93DF93CDB7DEB7C054D140B5
:1005E0000FB6F894DEBF0FBECDBF2FB7F894809141
:1005F0002B0290912C02A0912D02B0912E022FBFC0
:100600004091D5025091D6026091D7027091D802E4
:100610008C019D01041B150B260B370BB901A8019A
:10062000403D57406105710590F48091DD02C05C4A
:10063000DE4F0FB6F894DEBF0FBECDBFDF91CF9176
:100640001F910F91FF90EF90DF90CF9008958093CE
:10065000D5029093D602A093D702B093D8021092FD
:10066000D0021092CF021092CE021092CD021092C0
:10067000CC0262E08091D1020E94510261E070E000
:1006800080E090E00E94B20261E08091D1020E947D
:10069000510260E08091D1020E9423028091D20237
:1006A0008551823020F58BE291E10197F1F762E00C
:1006B0008091D1020E9451028091DE0290E082304E
:1006C000910538F0880F991F880F991F059701979A
:1006D000F1F7F89480E00E948C006F3F7F4F8F4FBE
:1006E0009F4F61F41092DD02789480E0A0CF64E126
:1006F00070E080E090E00E94B202D9CF81E00E94D9
:100700008C006F3F7F4F8F4F9F4F61F38E010F5FC4
:100710001F4F6E018FEBC81A8EEFD80A780180E068
:100720000E948C00F701608371838283938381E050
:100730000E948C00F7016483758386839783F8E0B9
:10074000EF0EF11CEC14FD0451F7789430E020E03A
:10075000F801C080D180E280F380448155816681B8
:100760007781FFEFCF16DF06EF06FF0631F04F3F30
:100770008FEF58076807780719F41092DD02B5CF9C
:10078000F90183E0F595E7958A95E1F7E453FD4F8C
:100790008081880FC416D506E606F70610F180831F
:1007A0002F5F3F4F085F1F4F2832310589F6409178
:1007B000D0022091CC028091CD02280F3327331F25
:1007C0008091CE02280F311D8091CF02820F932F8E
:1007D000911D99274817190681F681E08093DD0263
:1007E00026CF8160DCCF089590E080E00895CF931C
:1007F000DF93EC0160E08E810E94230261E08E8134
:100800000E94230260E08E810E9423028BE891E027
:100810000197F1F7DF91CF910895CF92DF92EF9298
:10082000FF920F931F93CF93DF936C017C0187E0BE
:10083000E80EF11CD0E0C0E0062F10E0B8010C2E4D
:1008400002C0759567950A94E2F76170F70181918E
:100850007F010E9423022196C430D10579F7C60199
:10086000DF91CF911F910F91FF90EF90DF90CF908C
:100870000C94F703CF92DF92EF92FF920F931F93A6
:10088000CF93DF93EC01F62E642F8C810E9423021C
:100890008D818F3F19F060E00E9423020F2D10E040
:1008A0008F8584FF25C06E0187E0C80ED11CF12C16
:1008B000E12CB8010E2C02C0759567950A94E2F7F9
:1008C0006170F60181916F010E942302FFEFEF1A20
:1008D000FF0A88E0E816F10461F7CE01DF91CF91BD
:1008E0001F910F91FF90EF90DF90CF900C94F70342
:1008F000B80184E0759567958A95E1F7CE010E946D
:100900000D046F2DCE01DF91CF911F910F91FF90BC
:10091000EF90DF90CF900C940D0440E0682F8FEDA6
:1009200092E00C943A04CF93DF93823029F49091B3
:10093000EE0298609093EE028093F2021092F3021E
:1009400080E48093F40280E18093F50280E5809357
:10095000F60261E08091E3020E9451028091E4027C
:100960008F3F19F061E00E94510261E08091E50241
:100970000E945102CFEDD2E09E012F5D3240809166
:10098000EE0284FD0BC084E090E021962817390721
:1009900044F461E08E810E945102EECF88E090E045
:1009A000F4CF8BE39DE00197F1F760E08091E302E3
:1009B0000E94230260E08091E5020E942302809160
:1009C000E4028F3F19F060E00E9423028091EE0262
:1009D00084FD39C063E08FED92E00E940D04CBE40A
:1009E000D6E4CE010197F1F763E08FED92E00E942B
:1009F0000D042197F1F763E08FED92E00E940D0462
:100A000083E592E00197F1F762E08FED92E00E94BA
:100A10000D048091EE0280620E948D0484E0809338
:100A2000EF028CE00E948D0481E00E948D048BE334
:100A30009FE10197F1F782E08093F00286E0DF9179
:100A4000CF910C948D0480620E948D048BE496E417
:100A50000197F1F78091EE0280620E948D0483E598
:100A600092E00197F1F78091EE0280620E948D047E
:100A7000D0CF41E00E943A0481E090E00895FB016C
:100A800001900020E9F73197AF01461B570BDC01BD
:100A9000ED91FC910280F381E02D09948F929F9259
:100AA000AF92BF92EF92FF920F931F93CF93DF937A
:100AB000CDB7DEB7A1970FB6F894DEBF0FBECDBF9E
:100AC0007C01FA01CB0119A2223008F42AE08E0140
:100AD0000F5D1F4F822E912CB12CA12CBF01A501BF
:100AE00094010E94450BF901CA016A300CF5605D62
:100AF000D8016E938D01232B242B252B79F790E0C1
:100B000080E0109721F0BD01C7010E943F05A1962A
:100B10000FB6F894DEBF0FBECDBFDF91CF911F910E
:100B20000F91FF90EF90BF90AF909F908F9008959E
:100B3000695CDECFCF92DF92EF92FF920F931F930B
:100B4000CF93DF936B01770FEE08FF08F7FE1FC00E
:100B5000EC01E881F9810190F081E02D6DE20995C9
:100B60008C0144275527BA014C195D096E097F098C
:100B70002AE0CE010E944E05800F911FDF91CF9198
:100B80001F910F91FF90EF90DF90CF9008952AE092
:100B9000B701A601DF91CF911F910F91FF90EF90C8
:100BA000DF90CF900C944E054F925F926F927F92A0
:100BB0008F929F92AF92BF92CF92DF92EF92FF926D
:100BC0006B017C01AC019B010E94420D60E271E06F
:100BD000811126C046015701E894B7F82FEF3FEF87
:100BE0004FE75FE7C501B4010E94420D81110CC0BF
:100BF0002FEF3FEF4FE75FE7C501B4010E94E30B22
:100C000064E271E0181664F02FEF3FEF4FE75FE406
:100C1000C701B6010E94D00C181694F468E271E086
:100C20008FE292E0FF90EF90DF90CF90BF90AF9077
:100C30009F908F907F906F905F904F900C943F05A6
:100C40002FEF3FEF4FE75FECC701B6010E94E30BC8
:100C500087FDE4CF20E030E0A901C701B6010E9482
:100C6000E30BB12CA12C87FF0AC06DE28FE292E06A
:100C70000E9464015C01F7FAF094F7F8F0942AE01E
:100C800037ED43EA5BE3C701B6010E94770B2B0106
:100C90003C010E94EF0B6B017C010E941E0C9B012A
:100CA000AC01C301B2010E94760B2B013C012AE08A
:100CB000B701A6018FE292E00E944E057C01EA0C8A
:100CC000FB1C6EE28FE292E00E946401E80EF91EC6
:100CD00020E030E040E251E4C301B2010E94D50CB3
:100CE0002B013C010E94EF0B4B01B12CA12C2AE0FF
:100CF000B501A4018FE292E00E944E05E80EF91EB4
:100D0000C501B4010E941E0C9B01AC01C301B201DC
:100D10000E94760B20E030E040E251E40E94D50CC6
:100D20000E94EF0BAB0170E060E02AE08FE292E0FE
:100D30000E944E058E0D9F1DFF90EF90DF90CF908B
:100D4000BF90AF909F908F907F906F905F904F90EB
:100D50000895CF93DF93BC018FE292E00E943F059C
:100D6000EC016CE271E08FE292E00E943F058C0F93
:100D70009D1FDF91CF9108950C943F051F920F9214
:100D80000FB60F9211242F933F934F935F936F935E
:100D90007F938F939F93AF93BF93EF93FF938FE2D4
:100DA00092E00E944201FF91EF91BF91AF919F911C
:100DB0008F917F916F915F914F913F912F910F9004
:100DC0000FBE0F901F9018951F920F920FB60F92A3
:100DD00011242F938F939F93EF93FF93E0913F0202
:100DE000F09140028081E0914502F091460282FD3F
:100DF0001BC09081809148028F5F8F7320914902C0
:100E0000821741F0E0914802F0E0E15DFD4F958FDF
:100E100080934802FF91EF919F918F912F910F90B6
:100E20000FBE0F901F9018958081F4CF1F920F92E4
:100E30000FB60F9211242F933F938F939F93AF93ED
:100E4000BF9380912B0290912C02A0912D02B09122
:100E50002E023091160223E0230F2D3758F501960C
:100E6000A11DB11D2093160280932B0290932C029A
:100E7000A0932D02B0932E02809117029091180238
:100E8000A0911902B0911A020196A11DB11D809383
:100E9000170290931802A0931902B0931A02BF91FF
:100EA000AF919F918F913F912F910F900FBE0F9017
:100EB0001F90189526E8230F0296A11DB11DD2CFD1
:100EC000CF93EFE2F2E01382128288EE93E0A0E08B
:100ED000B0E084839583A683B78386E091E0918315
:100EE000808385EC90E09587848784EC90E09787F9
:100EF000868780EC90E0918B808B81EC90E0938BE7
:100F0000828B82EC90E0958B848B86EC90E0978BC3
:100F1000868B118E128E138E148EEFEDF2E01382FB
:100F2000128288E191E0918380838CE084838FEF4B
:100F30008583CBE0C68387E0878386E0808785E072
:100F4000818784E082871386148615861686178625
:100F500081E00E949304ACECB2E082E015968C93A1
:100F600015971696CC931697E0EBF0E0E491179660
:100F7000EC931797ECE9F0E0E4911896EC9318974E
:100F800040E85EE360E070E01D964D935D936D93E5
:100F90007C935097CF910895789484B5826084BDF6
:100FA00084B5816084BD85B5826085BD85B581606D
:100FB00085BD80916E00816080936E0010928100EB
:100FC00080918100826080938100809181008160A6
:100FD0008093810080918000816080938000809167
:100FE000B10084608093B1008091B00081608093F3
:100FF000B00080917A00846080937A0080917A00BA
:10100000826080937A0080917A00816080937A0078
:1010100080917A00806880937A001092C100E091FC
:101020003F02F091400282E08083E0913B02F09128
:101030003C021082E0913D02F0913E028FEC8083F1
:1010400010924702E0914302F091440286E08083CF
:10105000E0914102F0914202808180618083E091C1
:101060004102F0914202808188608083E0914102D8
:10107000F0914202808180688083E0914102F0918A
:10108000420280818F7D808382E00E94930461E42C
:1010900071E08FED92E00E94BC06E091F202E23036
:1010A00008F009C1E150F0E0E152FD4F8489806809
:1010B0000E948D046FE471E08FED92E00E94BC0607
:1010C00060E083E00E94510262E088E00E945102E9
:1010D00061E089E00E94510261E08AE00E945102D1
:1010E00062E08091D1020E9451022FB7F894809162
:1010F0002B0290912C02A0912D02B0912E022FBFB5
:10110000805D9740A109B1098093D5029093D602E2
:10111000A093D702B093D80287E38093DE0260EDFC
:1011200077E080E090E00E94B20281E00E948D04AE
:101130008BE39FE10197F1F701E08FE292E00E94DB
:1011400022011816190664F48FE292E00E94000151
:10115000823309F4C3C00CF0B0C0813309F4B7C0C6
:1011600083E00E94FA01EC0188E00E94FA011C0170
:1011700040E4C42EC0927C0080917A008064809309
:101180007A0080917A0086FDFCCF80917800A09152
:101190007900BA2FA82F28EE33E00E94470D2FEFD9
:1011A00033E040E050E00E94260B290120E030E0CF
:1011B00046E952E46091250270912602809127024F
:1011C000909128020E94D00C181644F060912A02D7
:1011D00010E02DE2421621E0520614F011E061E029
:1011E00089E00E94230260912902111161E08AE0E6
:1011F0000E942302C130D10551F4809123029091C5
:101200002402892B21F487EB91E00E94A906D09358
:101210002402C093230281E02816310451F4809106
:10122000000190910101892B21F48DEC91E00E9445
:10123000A90630920101209200012FB7F894809105
:101240002B0290912C02A0912D02B0912E022FBF63
:1012500040911F0250912002609121027091220260
:101260006C017D01C41AD50AE60AF70AB701A60186
:10127000443C59406105710508F4B2C180931F02D6
:1012800090932002A0932102B09322020E94E402D4
:10129000882351F08091D2028B3030F08D3040F1B4
:1012A0008551823008F456C0812C912C30ECA32E4D
:1012B0003FE7B32E3BC0E1E0F6CE8333A1F08433A9
:1012C00009F04ECF109229028FE991E004C00093FB
:1012D0002A028FE591E00E94A90642CF10922A02CD
:1012E00083E791E0F8CF0093290288E891E0F3CFFB
:1012F0006091CD0270E090E080E00E94200C2DEC27
:101300003CEC4CEC5DE30E94D50C6B017C016091E0
:10131000CC0270E090E080E00E94200C9B01AC01C8
:10132000C701B6010E94770B4B015C010E94E402E9
:10133000882309F488C08091D2028C3009F45FC1FF
:10134000D8F48B3091F1C12CD12C90ECE92E9FE791
:10135000F92E55C06091CC027091CD027627672797
:10136000762790E080E00E941E0C2DEC3CEC4CECCB
:101370005DE30E94D50CD8CF8551823020F71091C3
:10138000CE02612F70E0762F662766277F778091E7
:10139000CF02682B90E080E00E941E0C2DEC3CEC0C
:1013A0004CEC5DE30E94D50C46C16091CE0270E02A
:1013B00090E080E00E941E0C6B017C011091CF0236
:1013C00017FF0AC0AC019B0160E070E080E89FEB72
:1013D0000E94760B6B017C011F70612F70E090E022
:1013E00080E00E94200C2DEC3CEC4CEC5DE30E9474
:1013F000D50CA70196010E94770B6B017C01A70118
:101400009601C701B6010E94420D81111CC020E067
:1014100030E040E252ECC701B6010E94D00C181631
:1014200094F420E030E04AEF52E4C701B6010E9494
:10143000E30B87FF08C0C0922502D0922602E092FB
:101440002702F0922802A5019401C501B4010E946F
:10145000420D811108C080921B0290921C02A09242
:101460001D02B0921E02E1E08091F2028111E0E0E3
:10147000E195F0E0E152FD4F848980680E948D047F
:101480006FED71E08FED92E00E94BC066091250245
:101490007091260280912702909128020E94E80B09
:1014A0008FED92E00E949A0562EE71E08FED92E07E
:1014B0000E94BC0665EE71E08FED92E00E94BC06D2
:1014C00060911B0270911C0280911D0290911E027E
:1014D0000E94E80B8FED92E00E949A0568EE71E0A1
:1014E0008FED92E00E94BC06E091F202E23008F03B
:1014F000ABC0E150F0E0E152FD4F848980680E946A
:101500008D046DEE71E08FED92E00E94BC06B20199
:101510008FED92E00E949A0560EF71E08FED92E00E
:101520000E94BC066FE271E0C130D10511F063E3A7
:1015300071E08FED92E00E94BC0667E371E081E00C
:101540002816310411F06CE371E08FED92E00E94F7
:10155000BC0665EF71E08FE292E00E94BC066091EC
:1015600025027091260280912702909128020E9404
:10157000D4056BEF71E08FE292E00E94BC066091AF
:101580001B0270911C0280911D0290911E020E940C
:10159000D40563E072E08FE292E00E94BC06B201E3
:1015A0008FE292E00E949A0569E072E08FE292E099
:1015B0000E94BC06BE018FE292E00E949A056FE095
:1015C00072E08FE292E00E94BC06B1018FE292E0ED
:1015D0000E949A056CE271E08FE292E00E943F0562
:1015E00080E0C82E80E0D82ECD2809F4A6CD0E9438
:1015F0002E01882309F4A1CD0E9400009ECD1091F8
:10160000CE02612F70E090E080E00E941E0C6B0122
:101610007C016091CF026F7070E090E080E00E94EA
:10162000200C2DEC3CEC4CEC5DE30E94D50CA701AA
:1016300096010E94770B6B017C0117FFE0CEF7FA51
:10164000F094F7F8F094DBCEE1E054CF052E97FB51
:101650001EF400940E943D0B57FD07D00E94450BDD
:1016600007FC03D04EF40C943D0B509540953095FB
:1016700021953F4F4F4F5F4F0895909580957095FE
:1016800061957F4F8F4F9F4F0895A1E21A2EAA1B9D
:10169000BB1BFD010DC0AA1FBB1FEE1FFF1FA21722
:1016A000B307E407F50720F0A21BB30BE40BF50B1F
:1016B000661F771F881F991F1A9469F760957095A8
:1016C000809590959B01AC01BD01CF010895A29F2B
:1016D000B001B39FC001A39F700D811D1124911D06
:1016E000B29F700D811D1124911D08955058BB2784
:1016F000AA270E948E0B0C94960C0E94880C38F03E
:101700000E948F0C20F039F49F3F19F426F40C94BA
:10171000850C0EF4E095E7FB0C947F0CE92F0E94FA
:10172000A70C58F3BA17620773078407950720F0D0
:1017300079F4A6F50C94C90C0EF4E0950B2EBA2F93
:10174000A02D0B01B90190010C01CA01A0011124C7
:10175000FF27591B99F0593F50F4503E68F11A1673
:10176000F040A22F232F342F4427585FF3CF469504
:1017700037952795A795F0405395C9F77EF41F1626
:10178000BA0B620B730B840BBAF09150A1F0FF0FF0
:10179000BB1F661F771F881FC2F70EC0BA0F621FDC
:1017A000731F841F48F4879577956795B795F795CC
:1017B0009E3F08F0B0CF9395880F08F09927EE0F61
:1017C0009795879508950E945B0C08F481E0089531
:1017D0000E94EF0B6894B1110C94CA0C08950E94FA
:1017E000AF0C88F09F5798F0B92F9927B751B0F0F8
:1017F000E1F0660F771F881F991F1AF0BA95C9F795
:1018000014C0B13091F00E94C90CB1E008950C945D
:10181000C90C672F782F8827B85F39F0B93FCCF310
:10182000869577956795B395D9F73EF49095809511
:10183000709561957F4F8F4F9F4F0895E89409C031
:1018400097FB3EF490958095709561957F4F8F4FF3
:101850009F4F9923A9F0F92F96E9BB279395F69509
:10186000879577956795B795F111F8CFFAF4BB0F87
:1018700011F460FF1BC06F5F7F4F8F4F9F4F16C0EB
:10188000882311F096E911C0772321F09EE8872F75
:10189000762F05C0662371F096E8862F70E060E031
:1018A0002AF09A95660F771F881FDAF7880F9695AA
:1018B000879597F90895990F0008550FAA0BE0E84E
:1018C000FEEF16161706E807F907C0F01216130602
:1018D000E407F50798F0621B730B840B950B39F442
:1018E0000A2661F0232B242B252B21F408950A26A8
:1018F00009F4A140A6958FEF811D811D089597F9E8
:101900009F6780E870E060E008959FEF80EC0895A5
:1019100000240A94161617061806090608950024CE
:101920000A9412161306140605060895092E039448
:10193000000C11F4882352F0BB0F40F4BF2B11F4BC
:1019400060FF04C06F5F7F4F8F4F9F4F089557FD1B
:101950009058440F551F59F05F3F71F04795880F1D
:1019600097FB991F61F09F3F79F0879508951216B4
:1019700013061406551FF2CF4695F1DF08C0161660
:1019800017061806991FF1CF869571056105089411
:101990000895E894BB2766277727CB0197F9089528
:1019A0000E945B0C08F48FEF08950E94E80C0C94E1
:1019B000960C0E94880C38F00E948F0C20F0952322
:1019C00011F00C947F0C0C94850C11240C94CA0C0F
:1019D0000E94A70C70F3959FC1F3950F50E0551F1F
:1019E000629FF001729FBB27F00DB11D639FAA2774
:1019F000F00DB11DAA1F649F6627B00DA11D661FC3
:101A0000829F2227B00DA11D621F739FB00DA11DE3
:101A1000621F839FA00D611D221F749F3327A00D9D
:101A2000611D231F849F600D211D822F762F6A2F39
:101A300011249F5750409AF0F1F088234AF0EE0F9E
:101A4000FF1FBB1F661F771F881F91505040A9F7CB
:101A50009E3F510580F00C947F0C0C94CA0C5F3FA4
:101A6000E4F3983ED4F3869577956795B795F79507
:101A7000E7959F5FC1F7FE2B880F911D969587957F
:101A800097F908950E945B0C880B990B08950E94AA
:101A9000670BB7FF0895821B930B0895EE0FFF1F8E
:0C1AA0000590F491E02D0994F894FFCF1C
:101AAC000100000000006401C400F100B10122013A
:101ABC0000011401000000003905C400F403F30315
:101ACC006E616E00696E66006F7666000D0A004DE1
:101ADC003A21004D3A2D0020443A4F0020443A431D
:101AEC0000536D61727420486F6D6520414900533D
:101AFC00797374656D2052656164792E2E2E0045C4
:101B0C0056454E543A4C45445F4D414E55414C5F01
:101B1C004F4E004556454E543A4C45445F4D414E50
:101B2C0055414C5F4F4646004556454E543A42553A
:101B3C005A5A45525F4D414E55414C5F4F4E0045F0
:101B4C0056454E543A42555A5A45525F4D414E55A0
:101B5C00414C5F4F4646004556454E543A4D4F5406
:101B6C00494F4E5F44455445435445440045564502
:101B7C004E543A444F4F525F4F50454E45440054DB
:101B8C003A00432000483A002520202000473A0024
:101B9C0050504D200054454D503A007C48554D490D
:101BAC00443A007C4741533A007C5049523A007CFD
:061BBC00444F4F523A00B5
:00000001FF
