:100000000C9462000C948A000C948A000C948A0070
:100010000C948A000C948A000C948A000C948A0038
:100020000C948A000C948A000C948A000C948A0028
:100030000C948A000C948A000C948A000C948A0018
:100040000C9497070C948A000C9465070C943F0756
:100050000C948A000C948A000C948A000C948A00F8
:100060000C948A000C948A000000000024002700F1
:100070002A0000000000250028002B0000000008D6
:10008000000201000003040700000000000000005F
:1000900000000000230026002900040404040404D6
:1000A0000404020202020202030303030303010227
:1000B00004081020408001020408102001020408F6
:1000C0001020E10711241FBECFEFD8E0DEBFCDBF67
:1000D00012E0A0E0B1E0EAEDFCE102C005900D9273
:1000E000AE32B107D9F723E0AEE2B2E001C01D9213
:1000F000A331B207E1F710E0C2E6D0E004C02197D7
:10010000FE010E945E0EC136D107C9F70E944D085C
:100110000C946B0E0C940000CF92DF92EF92FF9242
:10012000CF93DF93B091EF02A0E08111AB2F8091CC
:10013000F00290E0880F991FAC0140575F4FC090CC
:10014000F502D090F602E090F702F090F80230E06D
:1001500020E0FA01C591D491E881B90190E080E0F6
:10016000EB23EA130AC02F5F3F4F6C157D058E0508
:100170009F0578F36FEF7FEFCB01DF91CF91FF9079
:10018000EF90DF90CF900895AF92BF92CF92DF9221
:10019000EF92FF920F931F93CF93DF936C017B013C
:1001A0008B01040F151FEB015E01AE18BF08C017CD
:1001B000D10759F06991D601ED91FC910190F08140
:1001C000E02DC6010995892B79F7C501DF91CF9103
:1001D0001F910F91FF90EF90DF90CF90BF90AF9065
:1001E0000895FC01538D448D252F30E0842F90E03D
:1001F000821B930B541710F0CF9608950197089522
:10020000FC01918D828D981761F0A28DAE0FBF2FEA
:10021000B11D5D968C91928D9F5F9F73928F90E040
:1002200008958FEF9FEF0895FC01918D828D9817AF
:1002300031F0828DE80FF11D858D90E008958FEFEC
:100240009FEF0895FC01918D228D892F90E0805CB5
:100250009F4F821B91098F73992708958BE492E039
:100260000E94220121E0892B09F420E0822F0895C9
:1002700080E090E0892B29F00E942E0181110C94DE
:1002800000000895FC01A48DA80FB92FB11DA35A39
:10029000BF4F2C91848D90E001968F739927848FA6
:1002A000A689B7892C93A089B1898C9183708064C9
:1002B0008C93938D848D981306C00288F389E02D6A
:1002C00080818F7D80830895EF92FF920F931F931B
:1002D000CF93DF93EC0181E0888F9B8D8C8D9813F9
:1002E0001AC0E889F989808185FF15C09FB7F89405
:1002F000EE89FF896083E889F98980818370806451
:1003000080839FBF81E090E0DF91CF911F910F919B
:10031000FF90EF900895F62E0B8D10E00F5F1F4FAA
:100320000F731127E02E8C8D8E110CC00FB607FCB9
:10033000FACFE889F989808185FFF5CFCE010E9447
:100340004201F1CFEB8DEC0FFD2FF11DE35AFF4F72
:10035000F0829FB7F8940B8FEA89FB8980818062D5
:10036000CFCFCF93DF93EC01888D8823B9F0AA8992
:10037000BB89E889F9898C9185FD03C0808186FD60
:100380000DC00FB607FCF7CF8C9185FFF2CF8081AF
:1003900085FFEDCFCE010E944201E9CFDF91CF91E1
:1003A0000895833081F028F4813099F08230A9F0EB
:1003B00008958730A9F08830C9F08430B1F4809175
:1003C00080008F7D03C0809180008F7780938000B4
:1003D000089584B58F7784BD089584B58F7DFBCF54
:1003E0008091B0008F778093B00008958091B00025
:1003F0008F7DF9CFCF93DF93282F30E0F901E458B8
:10040000FF4F8491F901E255FF4FD491F901E6566F
:10041000FF4FC491CC23A1F081110E94D101EC2F98
:10042000F0E0EE0FFF1FE057FF4FA591B491EC9164
:10043000ED2381E090E009F480E0DF91CF91089511
:1004400080E090E0FACF1F93CF93DF93282F30E026
:10045000F901E458FF4F8491F901E255FF4FD4911F
:10046000F901E656FF4FC491CC23A9F0162F811154
:100470000E94D101EC2FF0E0EE0FFF1FEE58FF4F6E
:10048000A591B4918FB7F894EC91111108C0D09553
:10049000DE23DC938FBFDF91CF911F910895DE2B78
:1004A000F8CFCF93DF9390E0FC01E255FF4F24910A
:1004B00086569F4FFC0184918823C9F090E0880FF5
:1004C000991FFC01E859FF4FA591B491FC01EE582A
:1004D000FF4FC591D49161110DC09FB7F8948C91D5
:1004E000209582238C938881282328839FBFDF91C6
:1004F000CF910895623051F49FB7F8943C91822FC8
:10050000809583238C93E8812E2BEFCF8FB7F894BF
:10051000EC912E2B2C938FBFEACF3FB7F8948091AC
:100520002F0290913002A0913102B091320226B593
:10053000A89B05C02F3F19F00196A11DB11D3FBF1B
:10054000BA2FA92F982F8827BC01CD01620F711DEA
:10055000811D911D42E0660F771F881F991F4A95E4
:10056000D1F708958F929F92AF92BF92CF92DF9270
:10057000EF92FF924B015C010E948D026B017C01A6
:100580000E948D026C197D098E099F09683E734097
:1005900081059105A8F321E0821A9108A108B1080C
:1005A00088EEC80E83E0D81EE11CF11C8114910472
:1005B000A104B10429F7FF90EF90DF90CF90BF9096
:1005C000AF909F908F900895CF92DF92EF92FF921D
:1005D0000F931F93CF93DF93CDB7DEB7C054D140B5
:1005E0000FB6F894DEBF0FBECDBF2FB7F894809141
:1005F000470290914802A0914902B0914A022FBF50
:100600004091F1025091F2026091F3027091F40274
:100610008C019D01041B150B260B370BB901A8019A
:10062000403D57406105710590F48091F902C05C2E
:10063000DE4F0FB6F894DEBF0FBECDBFDF91CF9176
:100640001F910F91FF90EF90DF90CF9008958093CE
:10065000F1029093F202A093F302B093F40210928D
:10066000EC021092EB021092EA021092E902109250
:10067000E80262E08091ED020E94510261E070E0C8
:1006800080E090E00E94B20261E08091ED020E9461
:10069000510260E08091ED020E9423028091EE02FF
:1006A0008551823020F58BE291E10197F1F762E00C
:1006B0008091ED020E9451028091FA0290E0823016
:1006C000910538F0880F991F880F991F059701979A
:1006D000F1F7F89480E00E948C006F3F7F4F8F4FBE
:1006E0009F4F61F41092F902789480E0A0CF64E10A
:1006F00070E080E090E00E94B202D9CF81E00E94D9
:100700008C006F3F7F4F8F4F9F4F61F38E010F5FC4
:100710001F4F6E018FEBC81A8EEFD80A780180E068
:100720000E948C00F701608371838283938381E050
:100730000E948C00F7016483758386839783F8E0B9
:10074000EF0EF11CEC14FD0451F7789430E020E03A
:10075000F801C080D180E280F380448155816681B8
:100760007781FFEFCF16DF06EF06FF0631F04F3F30
:100770008FEF58076807780719F41092F902B5CF80
:10078000F90183E0F595E7958A95E1F7E851FD4F8A
:100790008081880FC416D506E606F70610F180831F
:1007A0002F5F3F4F085F1F4F2832310589F6409178
:1007B000EC022091E8028091E902280F3327331FD1
:1007C0008091EA02280F311D8091EB02820F932F56
:1007D000911D99274817190681F681E08093F90247
:1007E00026CF8160DCCF089590E080E00895CF931C
:1007F000DF93EC0160E08E810E94230261E08E8134
:100800000E94230260E08E810E9423028BE891E027
:100810000197F1F7DF91CF910895CF92DF92EF9298
:10082000FF920F931F93CF93DF936C017C0187E0BE
:10083000E80EF11CD0E0C0E0062F10E0B8010C2E4D
:1008400002C0759567950A94E2F76170F70181918E
:100850007F010E9423022196C430D10579F7C60199
:10086000DF91CF911F910F91FF90EF90DF90CF908C
:100870000C94F703CF92DF92EF92FF920F931F93A6
:10088000CF93DF93EC01F62E642F8C810E9423021C
:100890008D818F3F19F060E00E9423020F2D10E040
:1008A0008F8584FF25C06E0187E0C80ED11CF12C16
:1008B000E12CB8010E2C02C0759567950A94E2F7F9
:1008C0006170F60181916F010E942302FFEFEF1A20
:1008D000FF0A88E0E816F10461F7CE01DF91CF91BD
:1008E0001F910F91FF90EF90DF90CF900C94F70342
:1008F000B80184E0759567958A95E1F7CE010E946D
:100900000D046F2DCE01DF91CF911F910F91FF90BC
:10091000EF90DF90CF900C940D0440E0682F8BEFA8
:1009200092E00C943A04CF93DF93823029F49091B3
:100930000A03986090930A0380930E0310920F03AA
:1009400080E48093100380E18093110380E580931D
:10095000120361E08091FF020E9451028091000326
:100960008F3F19F061E00E94510261E08091010324
:100970000E945102CBEFD2E09E012B5F324080916A
:100980000A0384FD0BC084E090E021962817390704
:1009900044F461E08E810E945102EECF88E090E045
:1009A000F4CF8BE39DE00197F1F760E08091FF02C7
:1009B0000E94230260E0809101030E942302809143
:1009C00000038F3F19F060E00E94230280910A0328
:1009D00084FD39C063E08BEF92E00E940D04CBE40C
:1009E000D6E4CE010197F1F763E08BEF92E00E942D
:1009F0000D042197F1F763E08BEF92E00E940D0464
:100A000083E592E00197F1F762E08BEF92E00E94BC
:100A10000D0480910A0380620E948D0484E080931B
:100A20000B038CE00E948D0481E00E948D048BE317
:100A30009FE10197F1F782E080930C0386E0DF915C
:100A4000CF910C948D0480620E948D048BE496E417
:100A50000197F1F780910A0380620E948D0483E57B
:100A600092E00197F1F780910A0380620E948D0461
:100A7000D0CF41E00E943A0481E090E00895FB016C
:100A800001900020E9F73197AF01461B570BDC01BD
:100A9000ED91FC910280F381E02D09948F929F9259
:100AA000AF92BF92EF92FF920F931F93CF93DF937A
:100AB000CDB7DEB7A1970FB6F894DEBF0FBECDBF9E
:100AC0007C01FA01CB0119A2223008F42AE08E0140
:100AD0000F5D1F4F822E912CB12CA12CBF01A501BF
:100AE00094010E94EA0BF901CA016A300CF5605DBD
:100AF000D8016E938D01232B242B252B79F790E0C1
:100B000080E0109721F0BD01C7010E943F05A1962A
:100B10000FB6F894DEBF0FBECDBFDF91CF911F910E
:100B20000F91FF90EF90BF90AF909F908F9008959E
:100B3000695CDECFCF92DF92EF92FF920F931F930B
:100B4000CF93DF936B01770FEE08FF08F7FE1FC00E
:100B5000EC01E881F9810190F081E02D6DE20995C9
:100B60008C0144275527BA014C195D096E097F098C
:100B70002AE0CE010E944E05800F911FDF91CF9198
:100B80001F910F91FF90EF90DF90CF9008952AE092
:100B9000B701A601DF91CF911F910F91FF90EF90C8
:100BA000DF90CF900C944E054F925F926F927F92A0
:100BB0008F929F92AF92BF92CF92DF92EF92FF926D
:100BC0000F931F93CF936B017C01742EAC019B019B
:100BD0000E94590E60E271E0811126C04601570162
:100BE000E894B7F82FEF3FEF4FE75FE7C501B40197
:100BF0000E94590E81110CC02FEF3FEF4FE75FE7C6
:100C0000C501B4010E94880C64E271E0181664F01A
:100C10002FEF3FEF4FE75FE4C701B6010E94E70DFA
:100C20001816ACF468E271E08BE492E0CF911F916A
:100C30000F91FF90EF90DF90CF90BF90AF909F907B
:100C40008F907F906F905F904F900C943F052FEFA7
:100C50003FEF4FE75FECC701B6010E94880C87FDAC
:100C6000E1CF20E030E0A901C701B6010E94880C65
:100C700010E000E087FF0AC06DE28BE492E00E9482
:100C800064018C01F7FAF094F7F8F094C0E060E0AA
:100C900070E080E09FE37C1641F020E030E040E22D
:100CA00051E40E948D0CCF5FF6CFA70196010E9400
:100CB0001C0C2B013C010E94060D4B015C012AE03B
:100CC000BC01A4018BE492E00E944E057C01E00E81
:100CD000F11ECC23D1F1C501B4010E94350D9B0159
:100CE000AC01C301B2010E941B0C4B015C016EE21E
:100CF0008BE492E00E946401E80EF91EC15028F1D5
:100D000020E030E040E251E4C501B4010E94EC0D66
:100D10002B013C010E94060D4B01B12CA12C2AE0B5
:100D2000B501A4018BE492E00E944E05E80EF91E85
:100D3000C501B4010E94350D9B01AC01C301B20194
:100D40000E941B0C4B015C01D9CFC701CF911F91B1
:100D50000F91FF90EF90DF90CF90BF90AF909F905A
:100D60008F907F906F905F904F900895CF93DF9317
:100D7000BC018BE492E00E943F05EC016CE271E063
:100D80008BE492E00E943F058C0F9D1FDF91CF9175
:100D900008950C943F05EF92FF920F931F93CF930A
:100DA000DF938C01EB017A016FE271E08BE492E05A
:100DB0000E94C90660913D0270913E0280913F02FF
:100DC0009091400242E00E94D40565E371E08BE41B
:100DD00092E00E94C90660913302709134028091C2
:100DE00035029091360242E00E94D4056DE371E035
:100DF0008BE492E00E94C906B7018BE492E00E9466
:100E00009A0563E471E08BE492E00E94C906B801A0
:100E10008BE492E00E949A0569E471E08BE492E031
:100E20000E94C906BE018BE492E00E949A0560E52B
:100E300071E08BE492E00E94C906609143027091D8
:100E400044028BE492E00E949A0565E571E08BE430
:100E500092E00E94C90660914102709142028BE4C7
:100E600092E00E949A056CE271E08BE492E0DF91DF
:100E7000CF911F910F91FF90EF900C943F051F921F
:100E80000F920FB60F9211242F933F934F935F93BE
:100E90006F937F938F939F93AF93BF93EF93FF9342
:100EA0008BE492E00E944201FF91EF91BF91AF91DC
:100EB0009F918F917F916F915F914F913F912F9172
:100EC0000F900FBE0F901F9018951F920F920FB6A4
:100ED0000F9211242F938F939F93EF93FF93E091A1
:100EE0005B02F0915C028081E0916102F09162020C
:100EF00082FD1BC09081809164028F5F8F7320916F
:100F00006502821741F0E0916402F0E0E55BFD4F7D
:100F1000958F80936402FF91EF919F918F912F9114
:100F20000F900FBE0F901F9018958081F4CF1F92E5
:100F30000F920FB60F9211242F933F938F939F938D
:100F4000AF93BF938091470290914802A0914902CC
:100F5000B0914A0230912E0223E0230F2D3758F52D
:100F60000196A11DB11D20932E02809347029093FC
:100F70004802A0934902B0934A0280912F029091B7
:100F80003002A0913102B09132020196A11DB11D33
:100F900080932F0290933002A0933102B0933202DB
:100FA000BF91AF919F918F913F912F910F900FBE65
:100FB0000F901F90189526E8230F0296A11DB11DD2
:100FC000D2CFCF93EBE4F2E01382128288EE93E06B
:100FD000A0E0B0E084839583A683B78386E091E0A8
:100FE0009183808385EC90E09587848784EC90E002
:100FF0009787868780EC90E0918B808B81EC90E0E6
:10100000938B828B82EC90E0958B848B86EC90E0C6
:10101000978B868B118E128E138E148EEBEFF2E06F
:101020001382128288E191E0918380838CE0848333
:101030008FEF8583CBE0C68387E0878386E0808758
:1010400085E0818784E0828713861486158616865C
:10105000178681E00E949304A8EEB2E082E0159624
:101060008C9315971696CC931697E0EBF0E0E491ED
:101070001796EC931797ECE9F0E0E4911896EC934F
:10108000189740E85EE360E070E01D964D935D9335
:101090006D937C935097CF910895789484B5826036
:1010A00084BD84B5816084BD85B5826085BD85B50C
:1010B000816085BD80916E00816080936E0010928A
:1010C0008100809181008260809381008091810005
:1010D0008160809381008091800081608093800096
:1010E0008091B10084608093B1008091B0008160F4
:1010F0008093B00080917A00846080937A00809120
:101100007A00826080937A0080917A008160809377
:101110007A0080917A00806880937A001092C100F2
:10112000E0915B02F0915C0282E08083E0915702E3
:10113000F09158021082E0915902F0915A028FEC1E
:10114000808310926302E0915F02F091600286E07A
:101150008083E0915D02F0915E02808180618083F6
:10116000E0915D02F0915E02808188608083E09171
:101170005D02F0915E02808180688083E0915D0273
:10118000F0915E0280818F7D808382E00E949304D3
:101190006EE571E08BEF92E00E94C906E0910E03CC
:1011A000E23008F0ACC0E150F0E0E550FD4F84893A
:1011B00080680E948D046CE671E08BEF92E00E94E3
:1011C000C90660E083E00E94510262E088E00E946C
:1011D000510261E089E00E94510261E08AE00E94D0
:1011E000510262E08091ED020E9451022FB7F89403
:1011F0008091470290914802A0914902B0914A0221
:101200002FBF805D9740A109B1098093F1029093AF
:10121000F202A093F302B093F40287E38093FA0200
:1012200060ED77E080E090E00E94B20281E00E94F1
:101230008D048BE39FE10197F1F701E083E00E94C9
:10124000FA01EC0188E00E94FA011C0180E480931D
:101250007C0080917A00806480937A0080917A008B
:1012600086FDFCCFA091780080917900B82F28EE00
:1012700033E00E94640E2FEF33E040E050E00E9424
:10128000CB0B290179018BE492E00E942201181610
:1012900019060CF080C08BE492E00E94220118161F
:1012A00019060CF078C08BE492E00E940001182F20
:1012B0006CE771E08BE492E00E94C906612F8BE439
:1012C00092E00E9464016CE271E08BE492E00E9483
:1012D0003F051A3001F31D30F1F2EFECE10FE7307A
:1012E000D0F60E2E000CFF0BE858F64F0C945E0E55
:1012F0008109910996099B09A009B009C009E1E09B
:1013000053CF0093460280E891E00E94B606A70101
:10131000B101CE010E94CB068BE492E00E94B101A4
:10132000BACF109246028DE891E0EFCF00934502CC
:101330008BE991E0EACF109245028BEA91E0E5CF8C
:101340004AE1C42ED12CD0924402C092430281E0E3
:1013500090E090934202809341028CEB91E0D5CFD4
:1013600038E1C32ED12CD0924402C092430283E0D4
:1013700090E0909342028093410289EC91E0C5CFC6
:1013800010924402109243021092420210924102C3
:1013900086ED91E0BACF20E030E046E952E460917A
:1013A0003D0270913E0280913F02909140020E9466
:1013B000E70D181644F06091460210E09DE2E91630
:1013C00091E0F90614F011E061E089E00E94230247
:1013D00060914502111161E08AE00E942302C13050
:1013E000D10551F480913B0290913C02892B21F46C
:1013F00083EE91E00E94B606D0933C02C0933B027C
:1014000021E02216310451F48091000190910101F4
:10141000892B21F489EF91E00E94B60630920101F8
:10142000209200012FB7F8948091470290914802D2
:10143000A0914902B0914A022FBF409137025091CA
:1014400038026091390270913A026C017D01C41A30
:10145000D50AE60AF70AB701A601443C59406105DE
:10146000710508F445C18093370290933802A09328
:101470003902B0933A020E94E402882349F0809135
:10148000EE028B3028F08D3050F085518230C8F15B
:10149000812C912C20ECA22E2FE7B22E1EC0609141
:1014A000E90270E090E080E00E94370D2DEC3CEC0A
:1014B0004CEC5DE30E94EC0D6B017C016091E80255
:1014C00070E090E080E00E94370D9B01AC01C70105
:1014D000B6010E941C0C4B015C010E94E4028823AF
:1014E00009F488C08091EE028C3009F40EC1D8F462
:1014F0008B3091F1C12CD12C80ECE82E8FE7F82EA7
:1015000055C06091E8027091E90276276727762737
:1015100090E080E00E94350D2DEC3CEC4CEC5DE35E
:101520000E94EC0DD8CF8551823020F71091EA024D
:10153000612F70E0762F662766277F778091EB0218
:10154000682B90E080E00E94350D2DEC3CEC4CECDB
:101550005DE30E94EC0DF5C06091EA0270E090E05E
:1015600080E00E94350D6B017C011091EB0217FFAA
:101570000AC0AC019B0160E070E080E89FEB0E9434
:101580001B0C6B017C011F70612F70E090E080E00C
:101590000E94370D2DEC3CEC4CEC5DE30E94EC0D11
:1015A000A70196010E941C0C6B017C01A70196010A
:1015B000C701B6010E94590E81111CC020E030E025
:1015C00040E252ECC701B6010E94E70D181694F4F0
:1015D00020E030E04AEF52E4C701B6010E94880CD7
:1015E00087FF08C0C0923D02D0923E02E0923F02C7
:1015F000F0924002A5019401C501B4010E94590E68
:10160000811108C08092330290923402A092350278
:10161000B0923602E1E080910E038111E0E0E195A5
:10162000F0E0E550FD4F848980680E948D046BE0F6
:1016300072E08BEF92E00E94C90660913D027091CA
:101640003E0280913F02909140020E94FF0C8BEF7E
:1016500092E00E949A056EE072E08BEF92E00E94A9
:10166000C90661E172E08BEF92E00E94C9066091C9
:1016700033027091340280913502909136020E94BB
:10168000FF0C8BEF92E00E949A0564E172E08BEF11
:1016900092E00E94C906E0910E03E23008F05AC0C1
:1016A000E150F0E0E550FD4F848980680E948D0490
:1016B0008091430290914402892B09F04DC068E16A
:1016C00072E08BEF92E00E94C90660914102709136
:1016D00042028BEF92E00E949A0562E272E08BEF89
:1016E00092E00E94C906A201B101CE010E94CB0680
:1016F00080E090E0892B09F4A1CD0E942E0188237F
:1017000009F49BCD0E94000098CD1091EA02612F50
:1017100070E090E080E00E94350D6B017C016091EB
:10172000EB026F7070E090E080E00E94370D2DECCE
:101730003CEC4CEC5DE30E94EC0DA70196010E948D
:101740001C0C6B017C0117FF31CFF7FAF094F7F80E
:10175000F0942CCFE1E0A5CF61E571E08BEF92E052
:101760000E94C90660914302709144028BEF92E09F
:101770000E949A0569E272E08BEF92E00E94C9062E
:1017800060914102709142028BEF92E00E949A05B3
:1017900063E272E0A4CF052E97FB1EF400940E9432
:1017A000E20B57FD07D00E94EA0B07FC03D04EF472
:1017B0000C94E20B50954095309521953F4F4F4F3B
:1017C0005F4F089590958095709561957F4F8F4FED
:1017D0009F4F0895A1E21A2EAA1BBB1BFD010DC04D
:1017E000AA1FBB1FEE1FFF1FA217B307E407F507D1
:1017F00020F0A21BB30BE40BF50B661F771F881FAD
:10180000991F1A9469F760957095809590959B0142
:10181000AC01BD01CF010895A29FB001B39FC001EB
:10182000A39F700D811D1124911DB29F700D811D0C
:101830001124911D08955058BB27AA270E94330CEC
:101840000C94AD0D0E949F0D38F00E94A60D20F063
:1018500039F49F3F19F426F40C949C0D0EF4E09596
:10186000E7FB0C94960DE92F0E94BE0D58F3BA17B2
:10187000620773078407950720F079F4A6F50C94A6
:10188000E00D0EF4E0950B2EBA2FA02D0B01B9013F
:1018900090010C01CA01A0011124FF27591B99F0E6
:1018A000593F50F4503E68F11A16F040A22F232FF2
:1018B000342F4427585FF3CF469537952795A79542
:1018C000F0405395C9F77EF41F16BA0B620B730BE9
:1018D000840BBAF09150A1F0FF0FBB1F661F771F5A
:1018E000881FC2F70EC0BA0F621F731F841F48F40F
:1018F000879577956795B795F7959E3F08F0B0CF98
:101900009395880F08F09927EE0F9795879508957E
:101910000E94720D08F481E008950E94A10C0C94BD
:10192000AD0D0E94A60D58F00E949F0D40F029F4C5
:101930005F3F29F00C94960D51110C94E10D0C941D
:101940009C0D0E94BE0D68F39923B1F3552391F3CA
:10195000951B550BBB27AA2762177307840738F01E
:101960009F5F5F4F220F331F441FAA1FA9F335D07B
:101970000E2E3AF0E0E832D091505040E695001C2F
:10198000CAF72BD0FE2F29D0660F771F881FBB1FE9
:10199000261737074807AB07B0E809F0BB0B802DC7
:1019A000BF01FF2793585F4F3AF09E3F510578F0F3
:1019B0000C94960D0C94E10D5F3FE4F3983ED4F344
:1019C000869577956795B795F7959F5FC9F7880FC7
:1019D000911D9695879597F90895E1E0660F771F19
:1019E000881FBB1F621773078407BA0720F0621BAA
:1019F000730B840BBA0BEE1F88F7E09508950E94D5
:101A0000060D6894B1110C94E10D08950E94C60D65
:101A100088F09F5798F0B92F9927B751B0F0E1F0AF
:101A2000660F771F881F991F1AF0BA95C9F714C05F
:101A3000B13091F00E94E00DB1E008950C94E00DFA
:101A4000672F782F8827B85F39F0B93FCCF3869598
:101A500077956795B395D9F73EF4909580957095F5
:101A600061957F4F8F4F9F4F0895E89409C097FB72
:101A70003EF490958095709561957F4F8F4F9F4F65
:101A80009923A9F0F92F96E9BB279395F6958795A9
:101A900077956795B795F111F8CFFAF4BB0F11F46C
:101AA00060FF1BC06F5F7F4F8F4F9F4F16C0882313
:101AB00011F096E911C0772321F09EE8872F762F49
:101AC00005C0662371F096E8862F70E060E02AF08A
:101AD0009A95660F771F881FDAF7880F9695879576
:101AE00097F90895990F0008550FAA0BE0E8FEEF4B
:101AF00016161706E807F907C0F012161306E407D2
:101B0000F50798F0621B730B840B950B39F40A26CA
:101B100061F0232B242B252B21F408950A2609F4A8
:101B2000A140A6958FEF811D811D089597F99F67AC
:101B300080E870E060E008959FEF80EC0895002455
:101B40000A941616170618060906089500240A9422
:101B500012161306140605060895092E0394000CA8
:101B600011F4882352F0BB0F40F4BF2B11F460FF37
:101B700004C06F5F7F4F8F4F9F4F089557FD905860
:101B8000440F551F59F05F3F71F04795880F97FB41
:101B9000991F61F09F3F79F08795089512161306FB
:101BA0001406551FF2CF4695F1DF08C0161617062A
:101BB0001806991FF1CF869571056105089408955F
:101BC000E894BB2766277727CB0197F908950E94F1
:101BD000720D08F48FEF08950E94FF0D0C94AD0D67
:101BE0000E949F0D38F00E94A60D20F0952311F061
:101BF0000C94960D0C949C0D11240C94E10D0E94F4
:101C0000BE0D70F3959FC1F3950F50E0551F629F75
:101C1000F001729FBB27F00DB11D639FAA27F00D45
:101C2000B11DAA1F649F6627B00DA11D661F829F6C
:101C30002227B00DA11D621F739FB00DA11D621F51
:101C4000839FA00D611D221F749F3327A00D611D6E
:101C5000231F849F600D211D822F762F6A2F112450
:101C60009F5750409AF0F1F088234AF0EE0FFF1F83
:101C7000BB1F661F771F881F91505040A9F79E3FDA
:101C8000510580F00C94960D0C94E10D5F3FE4F348
:101C9000983ED4F3869577956795B795F795E79530
:101CA0009F5FC1F7FE2B880F911D9695879597F939
:101CB00008950E94720D880B990B0895EE0FFF1F77
:101CC0000590F491E02D09940E940C0CB7FF089543
:0A1CD000821B930B0895F894FFCFD8
:101CDA000100000000006401C400F100B10122010A
:101CEA0000011401000000003905C400F403F303E5
:101CFA006E616E00696E66006F7666000D0A0054AA
:101D0A00454D503A007C48554D49443A007C47417C
:101D1A00533A007C5049523A007C444F4F523A00A1
:101D2A007C41433A007C504552534F4E3A00536D22
:101D3A0061727420486F6D6520414900537973744C
:101D4A00656D2052656164792E2E2E0052583A0034
:101D5A004556454E543A4C45445F4F4E004556450C
:101D6A004E543A4C45445F4F4646004556454E54FC
:101D7A003A42555A5A45525F4F4E004556454E54BF
:101D8A003A42555A5A45525F4F4646004556454EC5
:101D9A00543A41435F323643004556454E543A4120
:101DAA00435F323443004556454E543A41435F4FF0
:101DBA004646004556454E543A4D4F54494F4E5F9C
:101DCA004445544543544544004556454E543A44C7
:101DDA004F4F525F4F50454E454400543A004320FE
:101DEA0000483A002520200041433A4F46462050F9
:0E1DFA003A00202020202020004320503A00F4
:00000001FF
