:020000040000FA
:100000000C9462000C948A000C948A000C948A0070
:100010000C948A000C948A000C948A000C948A0038
:100020000C948A000C948A000C948A000C948A0028
:100030000C948A000C948A000C948A000C948A0018
:100040000C9416070C948A000C94E4060C94BE06DB
:100050000C948A000C948A000C948A000C948A00F8
:100060000C948A000C948A000000000024002700F1
:100070002A0000000000250028002B0000000008D6
:10008000000201000003040700000000000000005F
:1000900000000000230026002900040404040404D6
:1000A0000404020202020202030303030303010227
:1000B00004081020408001020408102001020408F6
:1000C0001020600711241FBECFEFD8E0DEBFCDBFE8
:1000D00012E0A0E0B1E0E4E6FBE102C005900D9281
:1000E000AE35B107D9F723E0AEE5B2E001C01D920D
:1000F000A334B207E1F710E0C2E6D0E004C02197D4
:10010000FE010E94A30DC136D107C9F70E94CC079A
:100110000C94B00D0C940000CF92DF92EF92FF92FE
:10012000CF93DF93B0911F03A0E08111AB2F80919B
:10013000200390E0880F991FAC0140575F4FC0909B
:100140002503D0902603E0902703F090280330E0A9
:1001500020E0FA01C591D491E881B90190E080E0F6
:10016000EB23EA130AC02F5F3F4F6C157D058E0508
:100170009F0578F36FEF7FEFCB01DF91CF91FF9079
:10018000EF90DF90CF900895AF92BF92CF92DF9221
:10019000EF92FF920F931F93CF93DF936C017B013C
:1001A0008B01040F151FEB015E01AE18BF08C017CD
:1001B000D10759F06991D601ED91FC910190F08140
:1001C000E02DC6010995892B79F7C501DF91CF9103
:1001D0001F910F91FF90EF90DF90CF90BF90AF9065
:1001E0000895FC01538D448D252F30E0842F90E03D
:1001F000821B930B541710F0CF9608950197089522
:10020000FC01918D828D981761F0A28DAE0FBF2FEA
:10021000B11D5D968C91928D9F5F9F73928F90E040
:1002200008958FEF9FEF0895FC01918D828D9817AF
:1002300031F0828DE80FF11D858D90E008958FEFEC
:100240009FEF0895FC01918D228D892F90E0805CB5
:100250009F4F821B91098F73992708958BE792E036
:100260000E94220121E0892B09F420E0822F0895C9
:1002700080E090E0892B29F00E942E0181110C94DE
:1002800000000895FC01A48DA80FB92FB11DA35A39
:10029000BF4F2C91848D90E001968F739927848FA6
:1002A000A689B7892C93A089B1898C9183708064C9
:1002B0008C93938D848D981306C00288F389E02D6A
:1002C00080818F7D80830895EF92FF920F931F931B
:1002D000CF93DF93EC0181E0888F9B8D8C8D9813F9
:1002E0001AC0E889F989808185FF15C09FB7F89405
:1002F000EE89FF896083E889F98980818370806451
:1003000080839FBF81E090E0DF91CF911F910F919B
:10031000FF90EF900895F62E0B8D10E00F5F1F4FAA
:100320000F731127E02E8C8D8E110CC00FB607FCB9
:10033000FACFE889F989808185FFF5CFCE010E9447
:100340004201F1CFEB8DEC0FFD2FF11DE35AFF4F72
:10035000F0829FB7F8940B8FEA89FB8980818062D5
:10036000CFCFCF93DF93EC01888D8823B9F0AA8992
:10037000BB89E889F9898C9185FD03C0808186FD60
:100380000DC00FB607FCF7CF8C9185FFF2CF8081AF
:1003900085FFEDCFCE010E944201E9CFDF91CF91E1
:1003A0000895833081F028F4813099F08230A9F0EB
:1003B00008958730A9F08830C9F08430B1F4809175
:1003C00080008F7D03C0809180008F7780938000B4
:1003D000089584B58F7784BD089584B58F7DFBCF54
:1003E0008091B0008F778093B00008958091B00025
:1003F0008F7DF9CFCF93DF93282F30E0F901E458B8
:10040000FF4F8491F901E255FF4FD491F901E6566F
:10041000FF4FC491CC23A1F081110E94D101EC2F98
:10042000F0E0EE0FFF1FE057FF4FA591B491EC9164
:10043000ED2381E090E009F480E0DF91CF91089511
:1004400080E090E0FACF1F93CF93DF93282F30E026
:10045000F901E458FF4F8491F901E255FF4FD4911F
:10046000F901E656FF4FC491CC23A9F0162F811154
:100470000E94D101EC2FF0E0EE0FFF1FEE58FF4F6E
:10048000A591B4918FB7F894EC91111108C0D09553
:10049000DE23DC938FBFDF91CF911F910895DE2B78
:1004A000F8CFCF93DF9390E0FC01E255FF4F24910A
:1004B00086569F4FFC0184918823C9F090E0880FF5
:1004C000991FFC01E859FF4FA591B491FC01EE582A
:1004D000FF4FC591D49161110DC09FB7F8948C91D5
:1004E000209582238C938881282328839FBFDF91C6
:1004F000CF910895623051F49FB7F8943C91822FC8
:10050000809583238C93E8812E2BEFCF8FB7F894BF
:10051000EC912E2B2C938FBFEACF3FB7F8948091AC
:100520005F0290916002A0916102B091620226B5D3
:10053000A89B05C02F3F19F00196A11DB11D3FBF1B
:10054000BA2FA92F982F8827BC01CD01620F711DEA
:10055000811D911D42E0660F771F881F991F4A95E4
:10056000D1F708958F929F92AF92BF92CF92DF9270
:10057000EF92FF924B015C010E948D026B017C01A6
:100580000E948D026C197D098E099F09683E734097
:1005900081059105A8F321E0821A9108A108B1080C
:1005A00088EEC80E83E0D81EE11CF11C8114910472
:1005B000A104B10429F7FF90EF90DF90CF90BF9096
:1005C000AF909F908F900895CF92DF92EF92FF921D
:1005D0000F931F93CF93DF93CDB7DEB7C054D140B5
:1005E0000FB6F894DEBF0FBECDBF2FB7F894809141
:1005F000770290917802A0917902B0917A022FBF90
:1006000040912103509122036091230370912403B0
:100610008C019D01041B150B260B370BB901A8019A
:10062000403D57406105710590F480912903C05CFD
:10063000DE4F0FB6F894DEBF0FBECDBFDF91CF9176
:100640001F910F91FF90EF90DF90CF9008958093CE
:10065000210390932203A0932303B09324031092C9
:100660001C0310921B0310921A031092190310928C
:10067000180362E080911D030E94510261E070E066
:1006800080E090E00E94B20261E080911D030E9430
:10069000510260E080911D030E94230280911E039D
:1006A0008551823020F58BE291E10197F1F762E00C
:1006B00080911D030E94510280912A0390E08230B4
:1006C000910538F0880F991F880F991F059701979A
:1006D000F1F7F89480E00E948C006F3F7F4F8F4FBE
:1006E0009F4F61F410922903789480E0A0CF64E1D9
:1006F00070E080E090E00E94B202D9CF81E00E94D9
:100700008C006F3F7F4F8F4F9F4F61F38E010F5FC4
:100710001F4F6E018FEBC81A8EEFD80A780180E068
:100720000E948C00F701608371838283938381E050
:100730000E948C00F7016483758386839783F8E0B9
:10074000EF0EF11CEC14FD0451F7789430E020E03A
:10075000F801C080D180E280F380448155816681B8
:100760007781FFEFCF16DF06EF06FF0631F04F3F30
:100770008FEF58076807780719F410922903B5CF4F
:10078000F90183E0F595E7958A95E1F7E85EFC4F7E
:100790008081880FC416D506E606F70610F180831F
:1007A0002F5F3F4F085F1F4F2832310589F6409178
:1007B0001C032091180380911903280F3327331F3E
:1007C00080911A03280F311D80911B03820F932FF4
:1007D000911D99274817190681F681E08093290316
:1007E00026CF8160DCCF089590E080E00895CF931C
:1007F000DF93EC0160E08E810E94230261E08E8134
:100800000E94230260E08E810E9423028BE891E027
:100810000197F1F7DF91CF910895CF92DF92EF9298
:10082000FF920F931F93CF93DF936C017C0187E0BE
:10083000E80EF11CD0E0C0E0062F10E0B8010C2E4D
:1008400002C0759567950A94E2F76170F70181918E
:100850007F010E9423022196C430D10579F7C60199
:10086000DF91CF911F910F91FF90EF90DF90CF908C
:100870000C94F703CF92DF92EF92FF920F931F93A6
:10088000CF93DF93EC01F62E642F8C810E9423021C
:100890008D818F3F19F060E00E9423020F2D10E040
:1008A0008F8584FF25C06E0187E0C80ED11CF12C16
:1008B000E12CB8010E2C02C0759567950A94E2F7F9
:1008C0006170F60181916F010E942302FFEFEF1A20
:1008D000FF0A88E0E816F10461F7CE01DF91CF91BD
:1008E0001F910F91FF90EF90DF90CF900C94F70342
:1008F000B80184E0759567958A95E1F7CE010E946D
:100900000D046F2DCE01DF91CF911F910F91FF90BC
:10091000EF90DF90CF900C940D0440E0682F8BE2B5
:1009200093E00C943A04CF93DF93823029F49091B2
:100930003A03986090933A0380933E0310923F03EA
:1009400080E48093400380E18093410380E58093BD
:10095000420361E080912F030E9451028091300395
:100960008F3F19F061E00E94510261E080913103F4
:100970000E945102CBE2D3E09E012B523340809182
:100980003A0384FD0BC084E090E0219628173907D4
:1009900044F461E08E810E945102EECF88E090E045
:1009A000F4CF8BE39DE00197F1F760E080912F0396
:1009B0000E94230260E0809131030E942302809113
:1009C00030038F3F19F060E00E94230280913A03C8
:1009D00084FD39C063E08BE293E00E940D04CBE418
:1009E000D6E4CE010197F1F763E08BE293E00E9439
:1009F0000D042197F1F763E08BE293E00E940D0470
:100A000083E592E00197F1F762E08BE293E00E94C8
:100A10000D0480913A0380620E948D0484E08093EB
:100A20003B038CE00E948D0481E00E948D048BE3E7
:100A30009FE10197F1F782E080933C0386E0DF912C
:100A4000CF910C948D0480620E948D048BE496E417
:100A50000197F1F780913A0380620E948D0483E54B
:100A600092E00197F1F780913A0380620E948D0431
:100A7000D0CF41E00E943A0481E090E00895FB016C
:100A800001900020E9F73197AF01461B570BDC01BD
:100A9000ED91FC910280F381E02D09948F929F9259
:100AA000AF92BF92EF92FF920F931F93CF93DF937A
:100AB000CDB7DEB7A1970FB6F894DEBF0FBECDBF9E
:100AC0007C01FA01CB0119A2223008F42AE08E0140
:100AD0000F5D1F4F822E912CB12CA12CBF01A501BF
:100AE00094010E94A10BF901CA016A300CF5605D06
:100AF000D8016E938D01232B242B252B79F790E0C1
:100B000080E0109721F0BD01C7010E943F05A1962A
:100B10000FB6F894DEBF0FBECDBFDF91CF911F910E
:100B20000F91FF90EF90BF90AF909F908F9008959E
:100B3000695CDECFCF92DF92EF92FF920F931F930B
:100B4000CF93DF936B01770FEE08FF08F7FE1FC00E
:100B5000EC01E881F9810190F081E02D6DE20995C9
:100B60008C0144275527BA014C195D096E097F098C
:100B70002AE0CE010E944E05800F911FDF91CF9198
:100B80001F910F91FF90EF90DF90CF9008952AE092
:100B9000B701A601DF91CF911F910F91FF90EF90C8
:100BA000DF90CF900C944E054F925F926F927F92A0
:100BB0008F929F92AF92BF92CF92DF92EF92FF926D
:100BC0006B017C01AC019B010E949E0D60E271E013
:100BD000811126C046015701E894B7F82FEF3FEF87
:100BE0004FE75FE7C501B4010E949E0D81110CC063
:100BF0002FEF3FEF4FE75FE7C501B4010E943F0CC5
:100C000064E271E0181664F02FEF3FEF4FE75FE406
:100C1000C701B6010E942C0D181694F468E271E029
:100C20008BE792E0FF90EF90DF90CF90BF90AF9076
:100C30009F908F907F906F905F904F900C943F05A6
:100C40002FEF3FEF4FE75FECC701B6010E943F0C6B
:100C500087FDE4CF20E030E0A901C701B6010E9482
:100C60003F0CB12CA12C87FF0AC06DE28BE792E00C
:100C70000E9464015C01F7FAF094F7F8F0942AE01E
:100C800037ED43EA5BE3C701B6010E94D30B2B01AA
:100C90003C010E944B0C6B017C010E947A0C9B0171
:100CA000AC01C301B2010E94D20B2B013C012AE02E
:100CB000B701A6018BE792E00E944E057C01EA0C89
:100CC000FB1C6EE28BE792E00E946401E80EF91EC5
:100CD00020E030E040E251E4C301B2010E94310D56
:100CE0002B013C010E944B0C4B01B12CA12C2AE0A2
:100CF000B501A4018BE792E00E944E05E80EF91EB3
:100D0000C501B4010E947A0C9B01AC01C301B20180
:100D10000E94D20B20E030E040E251E40E94310D0D
:100D20000E944B0CAB0170E060E02AE08BE792E0A0
:100D30000E944E058E0D9F1DFF90EF90DF90CF908B
:100D4000BF90AF909F908F907F906F905F904F90EB
:100D50000895CF93DF93BC018BE792E00E943F059B
:100D6000EC016CE271E08BE792E00E943F058C0F92
:100D70009D1FDF91CF9108950C943F051F920F9214
:100D80000FB60F9211242F933F934F935F936F935E
:100D90007F938F939F93AF93BF93EF93FF938BE7D3
:100DA00092E00E944201FF91EF91BF91AF919F911C
:100DB0008F917F916F915F914F913F912F910F9004
:100DC0000FBE0F901F9018951F920F920FB60F92A3
:100DD00011242F938F939F93EF93FF93E0918B02B6
:100DE000F0918C028081E0919102F091920282FD5B
:100DF0001BC09081809194028F5F8F732091950228
:100E0000821741F0E0919402F0E0E558FD4F958F94
:100E100080939402FF91EF919F918F912F910F906A
:100E20000FBE0F901F9018958081F4CF1F920F92E4
:100E30000FB60F9211242F933F938F939F93AF93ED
:100E4000BF938091770290917802A0917902B0913E
:100E50007A0230915E0223E0230F2D3758F5019678
:100E6000A11DB11D20935E028093770290937802BA
:100E7000A0937902B0937A0280915F029091600210
:100E8000A0916102B09162020196A11DB11D8093F3
:100E90005F0290936002A0936102B0936202BF91DF
:100EA000AF919F918F913F912F910F900FBE0F9017
:100EB0001F90189526E8230F0296A11DB11DD2CFD1
:100EC000CF93EBE7F2E01382128288EE93E0A0E08A
:100ED000B0E084839583A683B78386E091E0918315
:100EE000808385EC90E09587848784EC90E09787F9
:100EF000868780EC90E0918B808B81EC90E0938BE7
:100F0000828B82EC90E0958B848B86EC90E0978BC3
:100F1000868B118E128E138E148EEBE2F3E0138209
:100F2000128288E191E0918380838CE084838FEF4B
:100F30008583CBE0C68387E0878386E0808785E072
:100F4000818784E082871386148615861686178625
:100F500081E00E949304A8E1B3E082E015968C93AF
:100F600015971696CC931697E0EBF0E0E491179660
:100F7000EC931797ECE9F0E0E4911896EC9318974E
:100F800040E85EE360E070E01D964D935D936D93E5
:100F90007C935097CF910895789484B5826084BDF6
:100FA00084B5816084BD85B5826085BD85B581606D
:100FB00085BD80916E00816080936E0010928100EB
:100FC00080918100826080938100809181008160A6
:100FD0008093810080918000816080938000809167
:100FE000B10084608093B1008091B00081608093F3
:100FF000B00080917A00846080937A0080917A00BA
:10100000826080937A0080917A00816080937A0078
:1010100080917A00806880937A001092C100E091FC
:101020008B02F0918C0282E08083E0918702F09144
:1010300088021082E0918902F0918A028FEC80830D
:1010400010929302E0918F02F091900286E08083EB
:10105000E0918D02F0918E02808180618083E09129
:101060008D02F0918E02808188608083E0918D02F4
:10107000F0918E02808180688083E0918D02F091F2
:101080008E0280818F7D808382E00E9493046FE2D4
:1010900071E08BE293E00E94BC06E0913E03E230F7
:1010A00008F068C0E150F0E0E55DFC4F848980689D
:1010B0000E948D046DE371E08BE293E00E94BC0618
:1010C00060E083E00E94510262E088E00E945102E9
:1010D00061E089E00E94510261E08AE00E945102D1
:1010E00062E080911D030E9451022FB7F894809115
:1010F000770290917802A0917902B0917A022FBF85
:10110000805D9740A109B109809321039093220348
:10111000A0932303B093240387E380932A0360ED15
:1011200077E080E090E00E94B20281E00E948D04AE
:101130008BE39FE10197F1F7C1E08BE792E00E941A
:10114000220118161906F4F48BE792E00E940001C0
:10115000EFECE80FE730B0F40E2E000CFF0BED546F
:10116000F74F0C94A30DBC086D09720977097C092F
:101170008D099D09E1E097CFC09376028DE491E05F
:101180000E94A90683E00E94FA018C0188E00E9477
:10119000FA011C0130E4D32ED0927C0080917A00B9
:1011A000806480937A0080917A0086FDFCCFA091C4
:1011B000780080917900B82F28EE33E00E94A90DC5
:1011C0002FEF33E040E050E00E94820B290120E045
:1011D00030E046E952E460916D0270916E028091B8
:1011E0006F02909170020E942C0D181644F06091CD
:1011F0007602D0E02DE2421621E0520614F0D1E052
:1012000061E089E00E94230260917502D11161E0E2
:101210008AE00E9423020130110551F480916B0293
:1012200090916C02892B21F484EE91E00E94A90632
:1012300010936C0200936B0281E02816310451F484
:101240008091000190910101892B21F48AEF91E0B6
:101250000E94A90630920101209200012FB7F89454
:101260008091770290917802A0917902B0917A02F0
:101270002FBF40916702509168026091690270919E
:101280006A026C017D01C41AD50AE60AF70AB701A1
:10129000A601443C59406105710508F4E0C1809302
:1012A000670290936802A0936902B0936A020E9459
:1012B000E402882359F080911E038B3038F08D3082
:1012C00008F446C08551823008F474C0812C912CFA
:1012D00020ECA22E2FE7B22E59C01092760281E6A2
:1012E00091E04ECFC093750286E791E049CF10920E
:1012F00075028DE891E044CF5AE1C52ED12CD092F1
:101300007402C0927302EE24E394F12CF092720204
:10131000E092710285EA91E033CF88E190E090930A
:1013200074028093730243E0C42ED12CD0927202D7
:10133000C09271028BEB91E023CF10927402109255
:101340007302109272021092710280ED91E018CF38
:101350006091190370E090E080E00E947C0C2DEC1D
:101360003CEC4CEC5DE30E94310D6B017C01609123
:10137000180370E090E080E00E947C0C9B01AC01BF
:10138000C701B6010E94D30B4B015C010E94E4022D
:10139000882309F488C080911E038C3009F46CC145
:1013A000D8F48B3091F1C12CD12C80ECE82E8FE752
:1013B000F82E55C06091180370911903762767279E
:1013C000762790E080E00E947A0C2DEC3CEC4CEC0F
:1013D0005DE30E94310DD8CF8551823020F7D09146
:1013E0001A036D2F70E0762F662766277F7780912E
:1013F0001B03682B90E080E00E947A0C2DEC3CEC03
:101400004CEC5DE30E94310D53C160911A0370E012
:1014100090E080E00E947A0C6B017C01D0911B036C
:10142000D7FF0AC0AC019B0160E070E080E89FEB51
:101430000E94D20B6B017C01DF706D2F70E090E099
:1014400080E00E947C0C2DEC3CEC4CEC5DE30E94B7
:10145000310DA70196010E94D30B6B017C01A701FE
:101460009601C701B6010E949E0D81111CC020E0AB
:1014700030E040E252ECC701B6010E942C0D181674
:1014800094F420E030E04AEF52E4C701B6010E9434
:101490003F0C87FF08C0C0926D02D0926E02E092AE
:1014A0006F02F0927002A5019401C501B4010E947F
:1014B0009E0D811108C08092630290926402A092F6
:1014C0006502B0926602E1E080913E038111E0E0A6
:1014D000E195F0E0E55DFC4F848980680E948D0411
:1014E0006CE072E08BE293E00E94BC0660916D02BA
:1014F00070916E0280916F02909170020E94440C74
:101500008BE293E00E949A056FE072E08BE293E039
:101510000E94BC0662E172E08BE293E00E94BC068E
:1015200060916302709164028091650290916602FD
:101530000E94440C8BE293E00E949A0565E172E000
:101540008BE293E00E94BC06E0913E03E23008F09B
:10155000B8C0E150F0E0E55DFC4F848980680E94EE
:101560008D048091730290917402892B09F0ABC0B5
:1015700069E172E08BE293E00E94BC066091710227
:10158000709172028BE293E00E949A0563E272E02E
:101590008BE293E00E94BC066FE272E08BE792E080
:1015A0000E94BC0660916D0270916E0280916F0284
:1015B000909170020E94D40565E372E08BE792E09F
:1015C0000E94BC0660916302709164028091650282
:1015D000909166020E94D4056DE372E08BE792E081
:1015E0000E94BC06B2018BE792E00E949A0563E478
:1015F00072E08BE792E00E94BC06B8018BE792E0B4
:101600000E949A0569E472E08BE792E00E94BC06B2
:10161000B1018BE792E00E949A0560E572E08BE7EA
:1016200092E00E94BC0660917302709174028BE795
:1016300092E00E949A0565E572E08BE792E00E94D5
:10164000BC0660917102709172028BE792E00E9479
:101650009A056CE271E08BE792E00E943F0580E022
:1016600090E0892B09F469CD0E942E01882309F4AA
:1016700064CD0E94000061CDD0911A036D2F70E0FF
:1016800090E080E00E947A0C6B017C0160911B036A
:101690006F7070E090E080E00E947C0C2DEC3CECE0
:1016A0004CEC5DE30E94310DA70196010E94D30B23
:1016B0006B017C01D7FFD3CEF7FAF094F7F8F094E2
:1016C000CECEE1E047CF61E572E08BE293E00E948D
:1016D000BC0660917302709174028BE293E00E94E9
:1016E0009A056AE272E08BE293E00E94BC06609188
:1016F0007102709172028BE293E00E949A0564E29B
:1017000072E046CF052E97FB1EF400940E94990BC1
:1017100057FD07D00E94A10B07FC03D04EF40C9498
:10172000990B50954095309521953F4F4F4F5F4F06
:10173000089590958095709561957F4F8F4F9F4F3D
:101740000895A1E21A2EAA1BBB1BFD010DC0AA1F02
:10175000BB1FEE1FFF1FA217B307E407F50720F01A
:10176000A21BB30BE40BF50B661F771F881F991F95
:101770001A9469F760957095809590959B01AC01DE
:10178000BD01CF010895A29FB001B39FC001A39FE7
:10179000700D811D1124911DB29F700D811D1124AA
:1017A000911D08955058BB27AA270E94EA0B0C945C
:1017B000F20C0E94E40C38F00E94EB0C20F039F49B
:1017C0009F3F19F426F40C94E10C0EF4E095E7FB2E
:1017D0000C94DB0CE92F0E94030D58F3BA17620733
:1017E00073078407950720F079F4A6F50C94250D6E
:1017F0000EF4E0950B2EBA2FA02D0B01B90190012C
:101800000C01CA01A0011124FF27591B99F0593F6F
:1018100050F4503E68F11A16F040A22F232F342FB7
:101820004427585FF3CF469537952795A795F04005
:101830005395C9F77EF41F16BA0B620B730B840B1A
:10184000BAF09150A1F0FF0FBB1F661F771F881FD2
:10185000C2F70EC0BA0F621F731F841F48F487952A
:1018600077956795B795F7959E3F08F0B0CF93951C
:10187000880F08F09927EE0F9795879508950E9495
:10188000B70C08F481E008950E944B0C6894B111E4
:101890000C94260D08950E940B0D88F09F5798F028
:1018A000B92F9927B751B0F0E1F0660F771F881F65
:1018B000991F1AF0BA95C9F714C0B13091F00E947F
:1018C000250DB1E008950C94250D672F782F8827FA
:1018D000B85F39F0B93FCCF3869577956795B395A6
:1018E000D9F73EF490958095709561957F4F8F4F15
:1018F0009F4F0895E89409C097FB3EF4909580951A
:10190000709561957F4F8F4F9F4F9923A9F0F92FC5
:1019100096E9BB279395F695879577956795B79543
:10192000F111F8CFFAF4BB0F11F460FF1BC06F5F29
:101930007F4F8F4F9F4F16C0882311F096E911C03B
:10194000772321F09EE8872F762F05C0662371F05C
:1019500096E8862F70E060E02AF09A95660F771F70
:10196000881FDAF7880F9695879597F90895990F4C
:101970000008550FAA0BE0E8FEEF16161706E80759
:10198000F907C0F012161306E407F50798F0621B7A
:10199000730B840B950B39F40A2661F0232B242B4F
:1019A000252B21F408950A2609F4A140A6958FEF6E
:1019B000811D811D089597F99F6780E870E060E0C0
:1019C00008959FEF80EC089500240A9416161706D8
:1019D00018060906089500240A9412161306140620
:1019E00005060895092E0394000C11F4882352F083
:1019F000BB0F40F4BF2B11F460FF04C06F5F7F4F3B
:101A00008F4F9F4F089557FD9058440F551F59F021
:101A10005F3F71F04795880F97FB991F61F09F3FDB
:101A200079F087950895121613061406551FF2CF04
:101A30004695F1DF08C0161617061806991FF1CF54
:101A400086957105610508940895E894BB2766277B
:101A50007727CB0197F908950E94B70C08F48FEF10
:101A600008950E94440D0C94F20C0E94E40C38F08E
:101A70000E94EB0C20F0952311F00C94DB0C0C94DD
:101A8000E10C11240C94260D0E94030D70F3959F18
:101A9000C1F3950F50E0551F629FF001729FBB2765
:101AA000F00DB11D639FAA27F00DB11DAA1F649F01
:101AB0006627B00DA11D661F829F2227B00DA11DB4
:101AC000621F739FB00DA11D621F839FA00D611D3A
:101AD000221F749F3327A00D611D231F849F600D5B
:101AE000211D822F762F6A2F11249F5750409AF084
:101AF000F1F088234AF0EE0FFF1FBB1F661F771F10
:101B0000881F91505040A9F79E3F510580F00C94DA
:101B1000DB0C0C94260D5F3FE4F3983ED4F38695DE
:101B200077956795B795F795E7959F5FC1F7FE2B7A
:101B3000880F911D9695879597F908950E94B70C87
:101B4000880B990B0895EE0FFF1F0590F491E02D7F
:101B500009940E94C30BB7FF0895821B930B08954D
:101B6000F894FFCF0100000000006401C400F10000
:101B7000B101220100011401000000003905C40078
:101B8000F403F3036E616E00696E66006F766600A3
:101B90000D0A00536D61727420486F6D65204149D4
:101BA0000053797374656D2052656164792E2E2E11
:101BB000004556454E543A4C45445F4D414E5541C3
:101BC0004C5F4F4E004556454E543A4C45445F4D90
:101BD000414E55414C5F4F4646004556454E543A9E
:101BE00042555A5A45525F4D414E55414C5F4F4EFA
:101BF000004556454E543A42555A5A45525F4D415A
:101C00004E55414C5F4F4646004556454E543A416D
:101C1000435F3236435F312D324E47554F490045C1
:101C200056454E543A41435F3234435F332B4E475F
:101C3000554F49004556454E543A41435F4F46463D
:101C40005F304E47554F49004556454E543A4D4F2B
:101C500054494F4E5F44455445435445440045560E
:101C6000454E543A444F4F525F4F50454E45440005
:101C7000543A00432000483A002520200041433ACE
:101C80004F464620503A00202020202020004320AC
:101C9000503A0054454D503A007C48554D49443A1D
:101CA000007C4741533A007C5049523A007C444FF3
:101CB0004F523A007C41433A007C504552534F4EBC
:021CC0003A00E8
:107E0000112484B714BE81FFF0D085E080938100F7
:107E100082E08093C00088E18093C10086E0809377
:107E2000C20080E18093C4008EE0C9D0259A86E02C
:107E300020E33CEF91E0309385002093840096BBD3
:107E4000B09BFECF1D9AA8958150A9F7CC24DD24C4
:107E500088248394B5E0AB2EA1E19A2EF3E0BF2EE7
:107E6000A2D0813461F49FD0082FAFD0023811F036
:107E7000013811F484E001C083E08DD089C08234E0
:107E800011F484E103C0853419F485E0A6D080C0E4
:107E9000853579F488D0E82EFF2485D0082F10E0AE
:107EA000102F00270E291F29000F111F8ED06801E7
:107EB0006FC0863521F484E090D080E0DECF843638
:107EC00009F040C070D06FD0082F6DD080E0C81688
:107ED00080E7D80618F4F601B7BEE895C0E0D1E017
:107EE00062D089930C17E1F7F0E0CF16F0E7DF06D8
:107EF00018F0F601B7BEE89568D007B600FCFDCFD4
:107F0000A601A0E0B1E02C9130E011968C91119780
:107F100090E0982F8827822B932B1296FA010C0160
:107F200087BEE89511244E5F5F4FF1E0A038BF0790
:107F300051F7F601A7BEE89507B600FCFDCF97BE46
:107F4000E89526C08437B1F42ED02DD0F82E2BD052
:107F50003CD0F601EF2C8F010F5F1F4F84911BD097
:107F6000EA94F801C1F70894C11CD11CFA94CF0C13
:107F7000D11C0EC0853739F428D08EE10CD085E9AC
:107F80000AD08FE07ACF813511F488E018D01DD067
:107F900080E101D065CF982F8091C00085FFFCCF94
:107FA0009093C60008958091C00087FFFCCF809118
:107FB000C00084FD01C0A8958091C6000895E0E648
:107FC000F0E098E1908380830895EDDF803219F02E
:107FD00088E0F5DFFFCF84E1DECF1F93182FE3DFCA
:107FE0001150E9F7F2DF1F91089580E0E8DFEE27F6
:047FF000FF270994CA
:027FFE00040479
:00000001FF
